:1000000029C0000042C0000040C000003EC0000007
:100010003CC000003AC0000038C0000036C00000FC
:1000200034C0000032C0000030C000002EC000000C
:100030002CC000002AC0000028C0000026C000001C
:1000400024C0000022C0000020C000001EC000002C
:100050001CC0000011241FBECFE5D8E0DEBFCDBF1D
:1000600010E0A0E6B0E0E4E0F4E002C005900D92FC
:10007000AC3FB107D9F720E0ACEFB0E001C01D9272
:10008000AD3FB207E1F7B6D1BBC1BACF10BC88E033
:1000900089B986E880BD88E18AB908955D9BFECF65
:1000A0008CB90895CF93DF93EC018881882329F0E0
:1000B0002196F4DF89918111FCCFDF91CF910895D2
:1000C00083E084BB85BBE2DF80E690E0EBDF8DE080
:1000D000E5DF86B78B7F86BF11B88CE080B984E0FE
:1000E00086BF85E38A95F1F70000089584EA86BF0C
:1000F00006B607FEFDCF81B1887F8830E1F78CEA34
:1001000090E0D0DF8DE0CACF089583B984E886BF40
:1001100006B607FEFDCF81B1887F8831E1F782E71F
:1001200090E0C0DF8DE0BACF089583B984E886BF40
:1001300006B607FEFDCF81B1887F8832E1F78AE8F5
:1001400090E0B0DF8DE0AACF0895CF93C82FCEDF27
:1001500080E4DBDF8C2FE9DF84E986BFCF9108954F
:10016000CF93C82F8091FC008F7084609C2F907F6C
:10017000892B8093FC00E9DF35E03A95F1F7000028
:100180008091FC008B7F8093FC00DFDF8AE18A9501
:10019000F1F700C08091FC008F70282F246030E1BF
:1001A000C39FC0011124822B8093FC00CEDF85E029
:1001B0008A95F1F700008091FC008B7F8093FC0012
:1001C000C4DF3AE13A95F1F700C0CF910895CF939B
:1001D000C82F88E08093FC00B8DF8C2FC1DFCF915F
:1001E0000895CF93C82F9091FC00892F8960809348
:1001F000FC00ABDF8C2FB4DFCF910895CF93DF935A
:10020000EC018881882329F02196EBDF8991811107
:10021000FCCFDF91CF91089581E0D9CF089584E09C
:100220008093FC0092DF25E82A95F1F7000083E037
:10023000CEDF83E0CCDF83E0CADF82E0C8DF88E284
:10024000C6DF8FE0C4DF81E0C2DF86E0C0DF80E888
:10025000BEDF85EE90E0D2DF8FEF93ED20E381509B
:1002600090402040E1F700C00000D6DF80E8AFCF2B
:1002700008950F931F93CF93DF938DE68ABB8BE591
:1002800087BBDD98C698D89AC19AC198C19ACC9B71
:10029000A7C08DC0C69AC698C198C19A26B389B323
:1002A00096B324708270822B95FB992790F9892B45
:1002B00009F492C07FC026B389B396B324708270CC
:1002C000822B95FB992790F9892B831376C0DD9AB1
:1002D000DD9831E0380F383070F336B389B326B388
:1002E00099B3A82FA270832F84708A2B2072822B3F
:1002F0009071892B09F064C0C2E085E0DFE0D898F6
:1003000083FF02C0C39A01C0C39882FF02C0DA9A79
:1003100001C0DA9881FF02C0C49A01C0C49880FF6E
:1003200002C0DB9A01C0DB98D89A29B3A6B399B36F
:1003300036B3A5FB442740F950E08A01000F111F96
:1003400091FB662760F970E0DB01AA0FBB1FAA0FC3
:10035000BB1F902F9A2B22952170922B32FBEE27F8
:10036000E0F9F0E09F01220F331F220F331F220F0D
:10037000331F922B981327C0892F8D27C15009F066
:10038000BECFC198C19A36B389B326B399B3482F6B
:100390004270832F8470842B2072822B9071892B62
:1003A000A9F482EF90E02ADF80E090E01EC081E0B7
:1003B00090E01BC081E090E018C081E090E015C0A3
:1003C00081E090E012C081E090E00FC081E090E019
:1003D0000CC081E090E009C0DD9ADD9831E06BCF80
:1003E000C69AC698CC9956CFF4CFDF91CF911F9182
:1003F0000F91089565DE13DF3CDF80E090E0089503
:04040000F894FFCF9E
:10040400434F44452D4E2D4C4F47494320493243D9
:100414003A0041434B205265636569766564206602
:100424006F72204D5420534C410041434B20526580
:1004340063656976656420666F72204D542044615B
:1004440074610052657065617465642053746172EF
:1004540074204578652E00526563656976696E6718
:10046400204D5220646174612041434B2000526549
:1004740063656976696E67204D522044617461201A
:100484004E41434B00434F44452D4E2D4C4F47495D
:0C04940043004943203734313937000061
:00000001FF
